:1000000019C033C032C06DC330C02FC02EC02DC048
:100010002CC02BC32AC029C028C027C026C025C099
:1000200024C023C022C021C020C01FC01EC01DC0CC
:100030001CC01BC011241FBECFEFD2E0DEBFCDBF5E
:1000400011E0A0E0B1E0E2EBF7E002C005900D9214
:10005000AE30B107D9F721E0AEE0B1E001C01D92AA
:10006000A731B207E1F71CD1A2C3CACFCF93DF9368
:10007000CDB7DEB784E490E021EAFC01208385E47B
:1000800090E022E0FC01208387E490E020910C01C5
:10009000FC01208388E490E020910D01FC01208385
:1000A0000000DF91CF910895CF93DF93CDB7DEB7F6
:1000B00086EB90E0FC01208186EB90E02062FC0161
:1000C000208381EB90E0FC01208181EB90E02560B2
:1000D000FC01208380E790E0FC01208180E790E034
:1000E0002160FC0120830000DF91CF910895CF9320
:1000F000DF93CDB7DEB787E290E0FC01208187E295
:1001000090E02F63FC0120838AE290E0FC01808173
:100110008AE290E02FEFFC0120830000DF91CF9175
:100120000895CF93DF93CDB7DEB788E690E0FC016A
:10013000208188E690E02160FC0120838BE390E041
:10014000FC0120818BE390E02160FC01208384E2AC
:1001500090E0FC01208184E290E02E7FFC0120836E
:1001600085E290E0FC01208185E290E02160FC01C5
:1001700020838BE690E0FC0120818BE690E02160FB
:10018000FC01208384E290E0FC01208184E290E085
:100190002D7FFC01208385E290E0FC01208185E237
:1001A00090E02260FC0120838BE690E0FC0120813E
:1001B0008BE690E02260FC01208384E290E0FC0169
:1001C000208184E290E02B7FFC01208385E290E097
:1001D000FC01208185E290E02460FC0120838BE615
:1001E00090E0FC0120818BE690E02460FC012083FC
:1001F0000000DF91CF910895CF93DF93CDB7DEB7A5
:1002000080911401882309F183E590E0FC0180814D
:10021000817F282F266083E590E0FC01208383E521
:1002200090E0FC01208183E590E02160FC012083C7
:100230007894889588E290E0FC01308188E290E033
:1002400024E02327FC0120831EC083E590E0FC010D
:10025000208183E590E0217FFC01208383E590E00D
:10026000FC01208183E590E02160FC0120837894EB
:10027000889588E290E0FC01308188E290E021E0FE
:100280002327FC01208383E590E0FC01208183E5A6
:1002900090E02E7FFC0120830000DF91CF91089534
:1002A000CF93DF93CDB7DEB7F894E0DEFDDE1FDF3E
:1002B00038DF7894A1DFFECFCF93DF93CDB7DEB7E1
:1002C00005D01CD00000DF91CF910895CF93DF932C
:1002D000CDB7DEB790910F0181E09C3308F480E048
:1002E000882339F010920F01809110018F5F809365
:1002F000100117D00000DF91CF910895CF93DF93C5
:10030000CDB7DEB79091100181E0983108F480E01C
:10031000882311F01092100157D00000DF91CF9187
:100320000895CF93DF9300D000D0CDB7DEB71A8207
:10033000198289819A8106970CF03EC080910F0145
:10034000882F90E0098002C0959587950A94E2F77E
:10035000817099279C838B838B819C81892B99F059
:1003600088E290E0FC018081282F81E090E0098004
:1003700002C0880F991F0A94E2F7282B88E290E0C8
:10038000FC01208313C088E290E0FC018081282FCB
:1003900081E090E0098002C0880F991F0A94E2F77B
:1003A0008095282388E290E0FC01208389819A814E
:1003B00001969A838983BDCF00000F900F900F9014
:1003C0000F90DF91CF910895CF93DF9300D000D0AD
:1003D00000D0CDB7DEB71A82198289819A8105973C
:1003E0000CF048C080911001882F90E0098002C075
:1003F000959587950A94E2F7817099279C838B8362
:1004000024E030E089819A81A901481B590BCA0177
:100410009E838D838B819C81892B99F08BE290E068
:10042000FC018081282F81E090E00D8002C0880FC0
:10043000991F0A94E2F7282B8BE290E0FC012083BD
:1004400013C08BE290E0FC018081282F81E090E0D6
:100450000D8002C0880F991F0A94E2F78095282327
:100460008BE290E0FC01208389819A8101969A8336
:100470008983B3CF000026960FB6F894DEBF0FBE77
:10048000CDBFDF91CF910895CF93DF930F92CDB77A
:10049000DEB789838981882371F49091010181E01D
:1004A0008927882331F080911101882311F081E0A0
:1004B00025C080E023C08981813071F490910201D0
:1004C00081E08927882331F080911201882311F07F
:1004D00081E014C080E012C08981823071F4909173
:1004E000030181E08927882331F08091130188235B
:1004F00011F081E003C080E001C080E00F90DF9147
:10050000CF910895CF93DF93CDB7DEB780E0BCDF06
:10051000982F81E08927882319F0109216011BC0BB
:1005200080E0B2DF8823B9F09091160181E092302B
:1005300008F480E0882339F09091000181E0892758
:100540008093000108C010920E0180910F018F5F0F
:1005500080930F01B1DE81E097DF882349F010928C
:100560000E01809110018F5F80931001C7DE14C0CF
:1005700082E08ADF882381F088E290E0FC0130810C
:1005800088E290E020E12327FC0120839091140170
:1005900081E08927809314010000DF91CF910895B5
:1005A000CF93DF93CDB7DEB780E06EDF982F81E089
:1005B0008927882319F0109216011BC080E064DFA0
:1005C0008823B9F09091160181E0923008F480E020
:1005D000882339F09091000181E089278093000100
:1005E00008C010920E0180910F01815080930F017D
:1005F00063DE81E049DF882349F010920E0180918B
:10060000100181508093100179DE2BC082E03CDF25
:10061000882339F1809115018F5F809315019091A6
:10062000150181E0973008F480E0882311F01092E2
:10063000150180911501282F30E087E490E02C5FB0
:100640003E4FF9012081FC01208380911501282F64
:1006500030E088E490E02C5F3E4FF9012081FC01FE
:1006600020830000DF91CF9108951F920F920FB663
:100670000F9211242F933F938F939F93EF93FF93A8
:10068000CF93DF93CDB7DEB7809116018F5F809354
:1006900016019091160181E09A3008F480E08823D9
:1006A00011F0109216019091000181E089278823B2
:1006B00051F08BE290E0FC0130818BE290E020E190
:1006C0002327FC0120830000DF91CF91FF91EF9160
:1006D0009F918F913F912F910F900FBE0F901F9080
:1006E00018951F920F920FB60F9211242F933F93DC
:1006F0004F935F936F937F938F939F93AF93BF932A
:10070000EF93FF93CF93DF93CDB7DEB783E290E013
:10071000FC018081882F90E08170992721E0892B4E
:1007200009F420E02093110183E290E0FC01808134
:10073000882F90E08270992721E0892B09F420E02E
:100740002093120183E290E0FC018081882F90E0E9
:100750008470992721E0892B09F420E0209313016C
:1007600080910001882311F0CDDE01C019DF809156
:100770001101809301018091120180930201809107
:100780001301809303010000DF91CF91FF91EF915E
:10079000BF91AF919F918F917F916F915F914F9199
:1007A0003F912F910F900FBE0F901F901895F894C6
:0207B000FFCF79
:0E07B20001010101FEFAF0D2B48C5000FEFEEF
:00000001FF
