:1000000019C033C032C037C330C02FC02EC02DC07E
:100010002CC0F5C22AC029C028C027C026C025C0D0
:1000200024C023C022C021C020C01FC01EC01DC0CC
:100030001CC01BC011241FBECFEFD2E0DEBFCDBF5E
:1000400011E0A0E0B1E0E8EBF7E002C005900D920E
:10005000AA30B107D9F721E0AAE0B1E001C01D92B2
:10006000A531B207E1F723D1A5C3CACFCF93DF9360
:10007000CDB7DEB784E490E0FC01208184E490E019
:100080002360FC01208384E490E0FC01208184E46F
:1000900090E02068FC01208384E490E0FC01208152
:1000A00084E490E02062FC01208385E490E0FC0180
:1000B000208185E490E02360FC01208387E490E0C8
:1000C00020910801FC01208388E490E0209109013F
:1000D000FC0120830000DF91CF910895CF93DF933F
:1000E000CDB7DEB786EB90E0FC01208186EB90E097
:1000F0002062FC01208381EB90E0FC01208181EBF8
:1001000090E02560FC01208380E790E0FC012081E5
:1001100080E790E02160FC0120830000DF91CF9117
:100120000895CF93DF93CDB7DEB787E290E0FC016F
:10013000208187E290E02F63FC0120838AE290E037
:10014000FC0180818AE290E02FEFFC012083000017
:10015000DF91CF910895CF93DF93CDB7DEB788E6D7
:1001600090E0FC01208188E690E02160FC01208382
:100170008BE390E0FC0120818BE390E02160FC01A7
:10018000208384E290E0FC01208184E290E02E7FD5
:10019000FC01208385E290E0FC01208185E290E073
:1001A0002160FC0120838BE690E0FC0120818BE63E
:1001B00090E02160FC01208384E290E0FC0120813A
:1001C00084E290E02D7FFC01208385E290E0FC0139
:1001D000208185E290E02260FC0120838BE690E0A4
:1001E000FC0120818BE690E02260FC01208384E208
:1001F00090E0FC01208184E290E02B7FFC012083D1
:1002000085E290E0FC01208185E290E02460FC0121
:1002100020838BE690E0FC0120818BE690E0246057
:10022000FC0120830000DF91CF910895CF93DF93ED
:10023000CDB7DEB783E590E0FC01208183E590E057
:10024000217FFC01208383E590E0FC01208183E590
:1002500090E02160FC012083889583E590E0FC011B
:10026000208183E590E02E7FFC0120830000DF9158
:10027000CF910895CF93DF93CDB7DEB783E590E0BC
:10028000FC018081817F282F266083E590E0FC01BE
:10029000208383E590E0FC01208183E590E02160EC
:1002A000FC01208388950000DF91CF910895CF93C2
:1002B000DF93CDB7DEB7F894D9DE10DF32DF4BDF46
:1002C0007894B4DF83E590E0FC01208183E590E041
:1002D0002160FC012083889583E590E0FC0120816A
:1002E00083E590E02E7FFC012083ECCFCF93DF935A
:1002F000CDB7DEB705D01CD00000DF91CF910895B7
:10030000CF93DF93CDB7DEB790910B0181E09C33A3
:1003100008F480E0882339F010920B0180910C01E1
:100320008F5F80930C0117D00000DF91CF9108956B
:10033000CF93DF93CDB7DEB790910C0181E0983178
:1003400008F480E0882311F010920C0157D00000CF
:10035000DF91CF910895CF93DF9300D000D0CDB738
:10036000DEB71A82198289819A8108970CF03EC003
:1003700080910B01882F90E0098002C095958795A8
:100380000A94E2F7817099279C838B838B819C81EF
:10039000892B99F088E290E0FC018081282F81E090
:1003A00090E0098002C0880F991F0A94E2F7282B79
:1003B00088E290E0FC01208313C088E290E0FC0119
:1003C0008081282F81E090E0098002C0880F991F6A
:1003D0000A94E2F78095282388E290E0FC012083CC
:1003E00089819A8101969A838983BDCF00000F90FD
:1003F0000F900F900F90DF91CF910895CF93DF93DF
:1004000000D000D0CDB7DEB71A82198289819A81D7
:1004100005970CF03EC080910C01882F90E0098078
:1004200002C0959587950A94E2F7817099279C837D
:100430008B838B819C81892B99F08BE290E0FC016E
:100440008081282F81E090E0098002C0880F991FE9
:100450000A94E2F7282B8BE290E0FC01208313C082
:100460008BE290E0FC018081282F81E090E0098000
:1004700002C0880F991F0A94E2F7809528238BE227
:1004800090E0FC01208389819A8101969A83898377
:10049000BDCF00000F900F900F900F90DF91CF9184
:1004A0000895CF93DF93CDB7DEB790910D0181E032
:1004B0008927882331F080911101882311F081E090
:1004C00001C080E0882349F010920A0180910B015D
:1004D0008F5F80930B010ADF20C090910E0181E0B5
:1004E0008927882331F080911201882311F081E05F
:1004F00001C080E0882349F010920A0180910C012C
:100500008F5F80930C0114DF08C090910F0181E090
:100510008927882311F0809113010000DF91CF918A
:100520000895CF93DF93CDB7DEB790910D0181E0B1
:100530008927882331F080911101882311F081E00F
:1005400001C080E0882349F010920A0180910B01DC
:10055000815080930B01CADE4EC090910E0181E064
:100560008927882331F080911201882311F081E0DE
:1005700001C080E0882349F010920A0180910C01AB
:10058000815080930C01D4DE36C090910F0181E040
:100590008927882331F080911301882311F081E0AD
:1005A00001C080E0882339F1809110018F5F809332
:1005B00010019091100181E0973008F480E08823C9
:1005C00011F01092100180911001282F30E087E483
:1005D00090E02F5F3E4FF9012081FC012083809144
:1005E0001001282F30E088E490E02F5F3E4FF901A2
:1005F0002081FC0120830000DF91CF9108951F929C
:100600000F920FB60F9211242F933F938F939F93C6
:10061000EF93FF93CF93DF93CDB7DEB780911401B3
:100620008F5F809314019091140181E09A3008F457
:1006300080E0882311F0109214019091000181E074
:100640008927882351F08BE290E0FC0130818BE216
:1006500090E020E12327FC0120830000DF91CF916F
:10066000FF91EF919F918F913F912F910F900FBE2E
:100670000F901F9018951F920F920FB60F92112492
:100680002F933F934F935F936F937F938F939F939A
:10069000AF93BF93EF93FF93CF93DF93CDB7DEB7C5
:1006A00083E290E0FC018081882F90E0817099279F
:1006B00021E0892B09F420E02093110183E290E0EE
:1006C000FC018081882F90E08270992721E0892B9E
:1006D00009F420E02093120183E290E0FC01808184
:1006E000882F90E08470992721E0892B09F420E07D
:1006F0002093130180910D01882341F09091110105
:1007000081E08927882311F081E001C080E08823FF
:1007100019F01092140127C090910D0181E08927F2
:10072000882331F080911101882311F081E001C00C
:1007300080E08823C1F09091140181E0923008F4A8
:1007400080E0882381F09091000181E089278093E7
:10075000000188E290E0FC01308188E290E024E032
:100760002327FC01208380910001882311F099DE6A
:1007700001C0D7DE8091110180930D01809112019B
:1007800080930E018091130180930F010000DF918F
:10079000CF91FF91EF91BF91AF919F918F917F91F9
:1007A0006F915F914F913F912F910F900FBE0F90DE
:0807B0001F901895F894FFCF8B
:0A07B80001FEF0D2B48C5000FEFEEA
:00000001FF
