:1000000019C033C032C075C330C02FC02EC02DC040
:100010002CC033C32AC029C028C027C026C025C091
:1000200024C023C022C021C020C01FC01EC01DC0CC
:100030001CC01BC011241FBECFEFD2E0DEBFCDBF5E
:1000400011E0A0E0B1E0ECEFFAE002C005900D9203
:10005000AE30B107D9F721E0AEE0B1E001C01D92AA
:10006000A631B207E1F723D147C5CACFCF93DF93BB
:10007000CDB7DEB784E490E0FC01208184E490E019
:100080002360FC01208384E490E0FC01208184E46F
:1000900090E02068FC01208384E490E0FC01208152
:1000A00084E490E02062FC01208385E490E0FC0180
:1000B000208185E490E02360FC01208387E490E0C8
:1000C00020910C01FC01208388E490E020910D0137
:1000D000FC0120830000DF91CF910895CF93DF933F
:1000E000CDB7DEB786EB90E0FC01208186EB90E097
:1000F0002062FC01208381EB90E0FC01208181EBF8
:1001000090E02560FC01208380E790E0FC012081E5
:1001100080E790E02160FC0120830000DF91CF9117
:100120000895CF93DF93CDB7DEB787E290E0FC016F
:10013000208187E290E02F63FC0120838AE290E037
:10014000FC0180818AE290E02FEFFC012083000017
:10015000DF91CF910895CF93DF93CDB7DEB788E6D7
:1001600090E0FC01208188E690E02160FC01208382
:100170008BE390E0FC0120818BE390E02160FC01A7
:10018000208384E290E0FC01208184E290E02E7FD5
:10019000FC01208385E290E0FC01208185E290E073
:1001A0002160FC0120838BE690E0FC0120818BE63E
:1001B00090E02160FC01208384E290E0FC0120813A
:1001C00084E290E02D7FFC01208385E290E0FC0139
:1001D000208185E290E02260FC0120838BE690E0A4
:1001E000FC0120818BE690E02260FC01208384E208
:1001F00090E0FC01208184E290E02B7FFC012083D1
:1002000085E290E0FC01208185E290E02460FC0121
:1002100020838BE690E0FC0120818BE690E0246057
:10022000FC0120830000DF91CF910895CF93DF93ED
:10023000CDB7DEB783E590E0FC01208183E590E057
:10024000217FFC01208383E590E0FC01208183E590
:1002500090E02160FC012083889583E590E0FC011B
:10026000208183E590E02E7FFC0120830000DF9158
:10027000CF910895CF93DF93CDB7DEB783E590E0BC
:10028000FC018081817F282F266083E590E0FC01BE
:10029000208383E590E0FC01208183E590E02160EC
:1002A000FC01208388950000DF91CF910895CF93C2
:1002B000DF93CDB7DEB7F894D9DE10DF32DF4BDF46
:1002C0007894B4DF83E590E0FC01208183E590E041
:1002D0002160FC012083889583E590E0FC0120816A
:1002E00083E590E02E7FFC012083ECCFCF93DF935A
:1002F000CDB7DEB705D01CD00000DF91CF910895B7
:10030000CF93DF93CDB7DEB790910F0181E09C339F
:1003100008F480E0882339F010920F0180911001D9
:100320008F5F8093100117D00000DF91CF91089567
:10033000CF93DF93CDB7DEB79091100181E0983174
:1003400008F480E0882311F01092100157D00000CB
:10035000DF91CF910895CF93DF9300D000D0CDB738
:10036000DEB71A82198289819A8106970CF03EC005
:1003700080910F01882F90E0098002C095958795A4
:100380000A94E2F7817099279C838B838B819C81EF
:10039000892B99F088E290E0FC018081282F81E090
:1003A00090E0098002C0880F991F0A94E2F7282B79
:1003B00088E290E0FC01208313C088E290E0FC0119
:1003C0008081282F81E090E0098002C0880F991F6A
:1003D0000A94E2F78095282388E290E0FC012083CC
:1003E00089819A8101969A838983BDCF00000F90FD
:1003F0000F900F900F90DF91CF910895CF93DF93DF
:1004000000D000D000D0CDB7DEB71A821982898122
:100410009A8105970CF048C080911001882F90E0D8
:10042000098002C0959587950A94E2F78170992713
:100430009C838B8324E030E089819A81A901481B49
:10044000590BCA019E838D838B819C81892B99F0E6
:100450008BE290E0FC018081282F81E090E00D800C
:1004600002C0880F991F0A94E2F7282B8BE290E0D4
:10047000FC01208313C08BE290E0FC018081282FD7
:1004800081E090E00D8002C0880F991F0A94E2F786
:10049000809528238BE290E0FC01208389819A815A
:1004A00001969A838983B3CF000026960FB6F894FD
:1004B000DEBF0FBECDBFDF91CF910895CF93DF9305
:1004C0000F92CDB7DEB789838981882371F490912B
:1004D000010181E08927882331F08091110188236F
:1004E00011F081E025C080E023C08981813071F462
:1004F0009091020181E08927882331F080911201D7
:10050000882311F081E014C080E012C0898182301C
:1005100071F49091030181E08927882331F0809163
:100520001301882311F081E003C080E001C080E066
:100530000F90DF91CF910895CF93DF93CDB7DEB7C2
:1005400080E0BCDF982F81E08927882319F0109282
:1005500015011BC080E0B2DF8823B9F0909115012E
:1005600081E0923008F480E0882339F09091000116
:1005700081E089278093000108C010920E018091CC
:100580000F018F5F80930F01B1DE81E097DF882339
:1005900049F010920E01809110018F5F809310013D
:1005A000C7DE02C082E08ADF0000DF91CF910895AC
:1005B000CF93DF93CDB7DEB780E080DF982F81E067
:1005C0008927882319F0109215011BC080E076DF7F
:1005D0008823B9F09091150181E0923008F480E011
:1005E000882339F09091000181E0892780930001F0
:1005F00008C010920E0180910F01815080930F016D
:1006000075DE81E05BDF882349F010920E01809156
:1006100010018150809310018BDE2BC082E04EDFF1
:10062000882339F1809114018F5F80931401909198
:10063000140181E0973008F480E0882311F01092D3
:10064000140180911401282F30E087E490E02C5FA2
:100650003E4FF9012081FC01208380911401282F55
:1006600030E088E490E02C5F3E4FF9012081FC01EE
:1006700020830000DF91CF9108951F920F920FB653
:100680000F9211242F933F938F939F93EF93FF9398
:10069000CF93DF93CDB7DEB7809115018F5F809345
:1006A00015019091150181E09A3008F480E08823CB
:1006B00011F0109215019091000181E089278823A3
:1006C00051F08BE290E0FC0130818BE290E020E180
:1006D0002327FC0120830000DF91CF91FF91EF9150
:1006E0009F918F913F912F910F900FBE0F901F9070
:1006F00018951F920F920FB60F9211242F933F93CC
:100700004F935F936F937F938F939F93AF93BF9319
:10071000EF93FF93CF93DF93CDB7DEB7A297DEBF02
:10072000CDBF80E090E0A0EAB0E489839A83AB83F8
:10073000BC8320E030E04AE753E469817A818B8111
:100740009C814FD16B8B7C8B8D8B9E8B8B899C89F5
:10075000AD89BE898D839E83AF83B88720E030E06A
:1007600040E85FE36D817E818F819885B9D08823D1
:100770002CF481E090E09A8789874FC020E03FEF1A
:100780004FE757E46D817E818F81988526D11816B9
:10079000BCF520E030E040E251E469817A818B8150
:1007A0009C811FD16F8B788F898F9A8F8F89988DBD
:1007B000A98DBA8D8F87988BA98BBA8B6F85788915
:1007C00089899A8991D06B8F7C8F8D8F9E8FAB8D0D
:1007D000BC8DBA87A98789859A85892B49F189E1DA
:1007E00090E09C878B878B859C850197F1F79C8790
:1007F0008B87000089859A8501979A878987EBCF37
:100800006D817E818F8198856FD06F8F78A389A34A
:100810009AA3EF8DF8A1FA87E98789859A859E8743
:100820008D878D859E850197F1F79E878D8701C005
:10083000000083E290E0DC018C91882F90E08170D1
:10084000992721E0892B09F420E02093110183E20C
:1008500090E0FC018081882F90E08270992721E050
:10086000892B09F420E02093120183E290E0DC015F
:100870008C91882F90E08470992721E0892B09F4CE
:1008800020E02093130180910001882311F054DEB1
:1008900001C08EDE809111018093010180911201CF
:1008A0008093020180911301809303010000A296BE
:1008B0000FB6F894DEBF0FBECDBFDF91CF91FF9191
:1008C000EF91BF91AF919F918F917F916F915F91C8
:1008D0004F913F912F910F900FBE0F901F90189541
:1008E0002FD008F481E0089557D088F09F5790F0FA
:1008F000B92F9927B751A0F0D1F0660F771F881F45
:10090000991F1AF0BA95C9F712C0B13081F05ED0C4
:10091000B1E008955BC0672F782F8827B85F39F062
:10092000B93FCCF3869577956795B395D9F73EF4A3
:1009300090958095709561957F4F8F4F9F4F08954B
:10094000990F0008550FAA0BE0E8FEEF16161706E0
:10095000E807F907C0F012161306E407F50798F048
:10096000621B730B840B950B39F40A2661F0232B61
:10097000242B252B21F408950A2609F4A140A695DD
:100980008FEF811D811D089557FD9058440F551F0D
:1009900059F05F3F71F04795880F97FB991F61F001
:1009A0009F3F79F087950895121613061406551F78
:1009B000F2CF4695F1DF08C0161617061806991FE4
:1009C000F1CF86957105610508940895E894BB27D9
:1009D00066277727CB0197F90895B2DF08F48FEFE8
:1009E00008950BD078C069D028F06ED018F0952308
:1009F00009F05AC05FC01124EACFC6DFA0F3959F6B
:100A0000D1F3950F50E0551F629FF001729FBB27F5
:100A1000F00DB11D639FAA27F00DB11DAA1F649FA1
:100A20006627B00DA11D661F829F2227B00DA11D54
:100A3000621F739FB00DA11D621F839FA00D611DDA
:100A4000221F749F3327A00D611D231F849F600DFB
:100A5000211D822F762F6A2F11249F5750408AF034
:100A6000E1F088234AF0EE0FFF1FBB1F661F771FC0
:100A7000881F91505040A9F79E3F510570F014C057
:100A8000A6CF5F3FECF3983EDCF3869577956795AC
:100A9000B795F795E7959F5FC1F7FE2B880F911DDE
:100AA0009695879597F9089597F99F6780E870E084
:100AB00060E008959FEF80EC089500240A941616D4
:100AC000170618060906089500240A94121613063C
:100AD000140605060895092E0394000C11F48823CA
:100AE00052F0BB0F40F4BF2B11F460FF04C06F5FE6
:0C0AF0007F4F8F4F9F4F0895F894FFCF69
:0E0AFC0001010101FEFAF0D2B48C5000FEFEA2
:00000001FF
