:1000000019C0ABC16EC2E5C030C02FC02EC02DC01C
:100010002CC02BC02AC029C028C027C026C025C09C
:1000200024C023C022C021C020C01FC01EC01DC0CC
:100030001CC01BC011241FBECFEFD2E0DEBFCDBF5E
:1000400011E0A0E0B1E0E6E8F8E002C005900D9212
:10005000A430B107D9F721E0A4E0B1E001C01D92BE
:10006000A730B207E1F7ADD00CC4CACFCF93DF936E
:10007000CDB7DEB787E290E0FC01208187E290E017
:100080002F63FC0120838AE290E0FC0120818AE258
:1000900090E0236BFC01208384E290E0FC0120814E
:1000A00084E290E02160FC0120830000DF91CF9189
:1000B0000895CF93DF93CDB7DEB784E490E0FC01E1
:1000C000208184E490E02360FC01208384E490E0BC
:1000D000FC01208184E490E02068FC01208384E41A
:1000E00090E0FC01208184E490E02062FC01208308
:1000F00085E490E0FC01208185E490E02360FC0130
:10010000208387E490E020E8FC01208388E490E0ED
:1001100020E8FC0120830000DF91CF910895CF9368
:10012000DF93CDB7DEB7F8948AE290E0FC0120813E
:100130008AE290E0237FFC0120838BE290E0FC01C7
:1001400020818BE290E02C60FC01208389E690E026
:10015000FC01208189E690E02A60FC0120838DE388
:1001600090E0FC0120818DE390E02360FC0120837E
:1001700084E290E0FC01208184E290E02B7FFC018E
:10018000208385E290E0FC01208185E290E02460FC
:10019000FC01208388E690E0FC01208188E690E065
:1001A0002160FC0120838BE690E0FC0120818BE63E
:1001B00090E02460FC01208378940000DF91CF91CF
:1001C0000895CF93DF93CDB7DEB750DFA8DF71DF9F
:1001D000FFCF1F920F920FB60F9211242F933F93D0
:1001E0004F935F936F937F938F939F93AF93BF933F
:1001F000EF93FF93CF93DF93CDB7DEB7A297DEBF28
:10020000CDBF88E290E0DC013C9188E290E020E202
:100210002327FC01208380E090E0A8ECB3E48983ED
:100220009A83AB83BC8320E030E04AE753E46981E2
:100230007A818B819C819AD26B8B7C8B8D8B9E8BF0
:100240008B899C89AD89BE898D839E83AF83B88756
:1002500020E030E040E85FE36D817E818F8198850A
:1002600004D288232CF481E090E09A8789874FC0DC
:1002700020E03FEF4FE757E46D817E818F819885C5
:1002800071D21816BCF520E030E040E251E46981FB
:100290007A818B819C816AD26F8B788F898F9A8FBC
:1002A0008F89988DA98DBA8D8F87988BA98BBA8BE2
:1002B0006F85788989899A89DCD16B8F7C8F8D8F46
:1002C0009E8FAB8DBC8DBA87A98789859A85892B2E
:1002D00049F189E190E09C878B878B859C8501970C
:1002E000F1F79C878B87000089859A8501979A870B
:1002F0008987EBCF6D817E818F819885BAD16F8F91
:1003000078A389A39AA3EF8DF8A1FA87E987898555
:100310009A859E878D878D859E850197F1F79E87AB
:100320008D8701C000000000A2960FB6F894DEBFD2
:100330000FBECDBFDF91CF91FF91EF91BF91AF91F4
:100340009F918F917F916F915F914F913F912F91ED
:100350000F900FBE0F901F9018951F920F920FB61F
:100360000F9211242F933F934F935F936F937F933B
:100370008F939F93AF93BF93EF93FF93CF93DF93AD
:10038000CDB7DEB7A297DEBFCDBF88E290E0DC013B
:100390003C9188E290E020E22327FC01208380E06A
:1003A00090E0A8ECB3E489839A83AB83BC8320E01C
:1003B00030E04AE753E469817A818B819C81D6D110
:1003C0006B8B7C8B8D8B9E8B8B899C89AD89BE8939
:1003D0008D839E83AF83B88720E030E040E85FE301
:1003E0006D817E818F81988540D188232CF481E0B6
:1003F00090E09A8789874FC020E03FEF4FE757E4AE
:100400006D817E818F819885ADD11816BCF520E075
:1004100030E040E251E469817A818B819C81A6D1F0
:100420006F8B788F898F9A8F8F89988DA98DBA8DD0
:100430008F87988BA98BBA8B6F85788989899A89E0
:1004400018D16B8F7C8F8D8F9E8FAB8DBC8DBA87B3
:10045000A98789859A85892B49F189E190E09C8754
:100460008B878B859C850197F1F79C878B87000094
:1004700089859A8501979A878987EBCF6D817E81DF
:100480008F819885F6D06F8F78A389A39AA3EF8D7B
:10049000F8A1FA87E98789859A859E878D878D855A
:1004A0009E850197F1F79E878D8701C000000000AF
:1004B000A2960FB6F894DEBF0FBECDBFDF91CF91ED
:1004C000FF91EF91BF91AF919F918F917F916F912C
:1004D0005F914F913F912F910F900FBE0F901F9002
:1004E00018951F920F920FB60F9211242F933F93DE
:1004F0004F935F936F937F938F939F93AF93BF932C
:10050000EF93FF93CF93DF93CDB7DEB7A297DEBF14
:10051000CDBF88E290E0DC013C9188E290E020E2EF
:100520002327FC01208380E090E0A8ECB3E48983DA
:100530009A83AB83BC8320E030E04AE753E46981CF
:100540007A818B819C8112D16B8B7C8B8D8B9E8B66
:100550008B899C89AD89BE898D839E83AF83B88743
:1005600020E030E040E85FE36D817E818F819885F7
:100570007CD088232CF481E090E09A8789874FC053
:1005800020E03FEF4FE757E46D817E818F819885B2
:10059000E9D01816BCF520E030E040E251E4698172
:1005A0007A818B819C81E2D06F8B788F898F9A8F33
:1005B0008F89988DA98DBA8D8F87988BA98BBA8BCF
:1005C0006F85788989899A8954D06B8F7C8F8D8FBC
:1005D0009E8FAB8DBC8DBA87A98789859A85892B1B
:1005E00049F189E190E09C878B878B859C850197F9
:1005F000F1F79C878B87000089859A8501979A87F8
:100600008987EBCF6D817E818F81988532D06F8F06
:1006100078A389A39AA3EF8DF8A1FA87E987898542
:100620009A859E878D878D859E850197F1F79E8798
:100630008D8701C000000000A2960FB6F894DEBFBF
:100640000FBECDBFDF91CF91FF91EF91BF91AF91E1
:100650009F918F917F916F915F914F913F912F91DA
:100660000F900FBE0F901F9018952FD008F481E0C7
:10067000089557D088F09F5790F0B92F9927B75118
:10068000A0F0D1F0660F771F881F991F1AF0BA9556
:10069000C9F712C0B13081F05ED0B1E008955BC0FF
:1006A000672F782F8827B85F39F0B93FCCF386954C
:1006B00077956795B395D9F73EF4909580957095A9
:1006C00061957F4F8F4F9F4F0895990F0008550FE9
:1006D000AA0BE0E8FEEF16161706E807F907C0F0C8
:1006E00012161306E407F50798F0621B730B840BD0
:1006F000950B39F40A2661F0232B242B252B21F4AA
:1007000008950A2609F4A140A6958FEF811D811D49
:10071000089557FD9058440F551F59F05F3F71F0F1
:100720004795880F97FB991F61F09F3F79F0879558
:100730000895121613061406551FF2CF4695F1DFE1
:1007400008C0161617061806991FF1CF8695710571
:10075000610508940895E894BB2766277727CB01A5
:1007600097F90895B2DF08F48FEF08950BD078C0A1
:1007700069D028F06ED018F0952309F05AC05FC0F8
:100780001124EACFC6DFA0F3959FD1F3950F50E077
:10079000551F629FF001729FBB27F00DB11D639F33
:1007A000AA27F00DB11DAA1F649F6627B00DA11DD9
:1007B000661F829F2227B00DA11D621F739FB00D7F
:1007C000A11D621F839FA00D611D221F749F3327EF
:1007D000A00D611D231F849F600D211D822F762F88
:1007E0006A2F11249F5750408AF0E1F088234AF085
:1007F000EE0FFF1FBB1F661F771F881F91505040D1
:10080000A9F79E3F510570F014C0A6CF5F3FECF3EF
:10081000983EDCF3869577956795B795F795E795BC
:100820009F5FC1F7FE2B880F911D9695879597F9CD
:10083000089597F99F6780E870E060E008959FEF62
:1008400080EC089500240A94161617061806090667
:10085000089500240A941216130614060506089536
:10086000092E0394000C11F4882352F0BB0F40F4BE
:10087000BF2B11F460FF04C06F5F7F4F8F4F9F4FFE
:060880000895F894FFCF7B
:04088600010101006B
:00000001FF
