:1000000019C033C032C0C1C230C02FC02EC02DC0F5
:100010002CC07DC22AC029C028C027C026C025C048
:1000200024C023C022C021C020C01FC01EC01DC0CC
:100030001CC01BC011241FBECFEFD2E0DEBFCDBF5E
:1000400011E0A0E0B1E0E0E8F6E002C005900D921A
:10005000A230B107D9F721E0A2E0B1E001C01D92C2
:10006000AB30B207E1F732D109C3CACFCF93DF93E8
:10007000CDB7DEB784E490E0FC01208184E490E019
:100080002360FC01208384E490E0FC01208184E46F
:1000900090E02068FC01208384E490E0FC01208152
:1000A00084E490E02062FC01208385E490E0FC0180
:1000B000208185E490E02360FC01208387E490E0C8
:1000C00020910001FC01208388E490E0209101014F
:1000D000FC0120830000DF91CF910895CF93DF933F
:1000E000CDB7DEB786EB90E0FC01208186EB90E097
:1000F0002062FC01208381EB90E0FC01208181EBF8
:1001000090E02560FC01208380E790E0FC012081E5
:1001100080E790E02160FC01208386EB90E0FC0109
:100120008081882F90E08571992721E0892B09F43F
:1001300020E0222309F0F1CF0000DF91CF91089554
:10014000CF93DF93CDB7DEB787E290E0FC0120814B
:1001500087E290E02F63FC0120838AE290E0FC01BB
:1001600080818AE290E02FEFFC0120830000DF9184
:10017000CF910895CF93DF93CDB7DEB788E690E0B7
:10018000FC01208188E690E02160FC0120838BE364
:1001900090E0FC0120818BE390E02160FC01208352
:1001A00084E290E0FC01208184E290E02D7FFC015C
:1001B000208385E290E0FC01208185E290E02260CE
:1001C000FC0120838BE690E0FC0120818BE690E02F
:1001D0002260FC01208384E290E0FC01208184E223
:1001E00090E02B7FFC01208385E290E0FC012081E0
:1001F00085E290E02460FC0120838BE690E0FC0126
:1002000020818BE690E02460FC01208384E290E072
:10021000FC01208184E290E02E7FFC01208385E2B6
:1002200090E0FC01208185E290E02160FC012083C8
:100230008BE690E0FC0120818BE690E02160FC01E0
:1002400020830000DF91CF910895CF93DF93CDB746
:10025000DEB783E590E0FC01208183E590E0217F1B
:10026000FC01208383E590E0FC01208183E590E0A0
:100270002160FC012083889583E590E0FC012081CA
:1002800083E590E02E7FFC0120830000DF91CF9179
:100290000895CF93DF93CDB7DEB783E590E0FC01FF
:1002A0008081817F282F266083E590E0FC012083F8
:1002B00083E590E0FC01208183E590E02160FC0172
:1002C000208388950000DF91CF910895CF93DF932D
:1002D000CDB7DEB7F894CADE01DF32DF4BDF7894AA
:1002E000B4DF83E590E0FC01208183E590E02160AC
:1002F000FC012083889583E590E0FC01208183E563
:1003000090E02E7FFC012083ECCFCF93DF93CDB71D
:10031000DEB705D01CD00000DF91CF910895CF93B8
:10032000DF93CDB7DEB79091030181E09C3308F4F1
:1003300080E0882339F010920301809104018F5FDF
:100340008093040117D00000DF91CF910895CF93DF
:10035000DF93CDB7DEB79091040181E0983108F4C6
:1003600080E0882311F01092040157D00000DF9143
:10037000CF910895CF93DF9300D000D0CDB7DEB7F3
:100380001A82198289819A8108970CF03EC0809167
:100390000301882F90E0098002C0959587950A9403
:1003A000E2F7817099279C838B838B819C81892BB9
:1003B00099F088E290E0FC018081282F81E090E0B4
:1003C000098002C0880F991F0A94E2F7282B88E25F
:1003D00090E0FC01208313C088E290E0FC01808162
:1003E000282F81E090E0098002C0880F991F0A94AD
:1003F000E2F78095282388E290E0FC012083898140
:100400009A8101969A838983BDCF00000F900F9047
:100410000F900F90DF91CF910895CF93DF9300D08D
:1004200000D0CDB7DEB71A82198289819A810597EB
:100430000CF03EC080910401882F90E0098002C03A
:10044000959587950A94E2F7817099279C838B8311
:100450008B819C81892B99F08BE290E0FC0180815B
:10046000282F81E090E0098002C0880F991F0A942C
:10047000E2F7282B8BE290E0FC01208313C08BE293
:1004800090E0FC018081282F81E090E0098002C08B
:10049000880F991F0A94E2F7809528238BE290E059
:1004A000FC01208389819A8101969A838983BDCF3B
:1004B00000000F900F900F900F90DF91CF91089553
:1004C000CF93DF93CDB7DEB79091080181E09923F8
:1004D00009F080E0DF91CF910895CF93DF93CDB7FE
:1004E000DEB79091090181E0992309F080E0DF9166
:1004F000CF910895CF93DF93CDB7DEB790910A01E6
:1005000081E0992309F080E0DF91CF9108951F9257
:100510000F920FB60F9211242F933F934F935F9337
:100520006F937F938F939F93AF93BF93EF93FF93BB
:10053000CF93DF93CDB7DEB7809102018F5F8093B9
:1005400002019091020181E09C3308F480E088234D
:1005500041F010920201809103018F5F80930301AB
:10056000D4DE0000DF91CF91FF91EF91BF91AF9169
:100570009F918F917F916F915F914F913F912F91BB
:100580000F900FBE0F901F9018951F920F920FB6ED
:100590000F9211242F933F934F935F936F937F9309
:1005A0008F939F93AF93BF93EF93FF93CF93DF937B
:1005B000CDB7DEB783E290E0FC018081817080934B
:1005C000080183E290E0FC018081882F90E09595FE
:1005D000879581708093090183E290E0FC0180811E
:1005E000882F90E095958795959587958170809354
:1005F0000A0166DF882359F01092020180910301FD
:100600008F5F8093030181DE109205011AC065DFC0
:10061000882359F010920201809104018F5F80932A
:10062000040195DE109206010CC064DF882349F0B6
:1006300030DE90910A0181E0992309F480E08093F3
:10064000070183E590E0FC01208183E590E02E7FA7
:10065000FC0120830000DF91CF91FF91EF91BF91CA
:10066000AF919F918F917F916F915F914F913F914A
:100670002F910F900FBE0F901F901895F894FFCFF9
:02068000FEFE7C
:00000001FF
