:1000000019C033C032C069C130C02FC02EC02DC04E
:100010002CC02BC02AC029C028C027C026C025C09C
:1000200024C023C022C021C020C01FC01EC01DC0CC
:100030001CC01BC011241FBECFEFD2E0DEBFCDBF5E
:1000400011E0A0E0B1E0ECEEF3E002C005900D920B
:10005000A630B107D9F721E0A6E0B1E001C01D92BA
:10006000AA30B207E1F7A5D0BFC1CACFCF93DF93C3
:10007000CDB7DEB784E490E021EAFC01208385E47B
:1000800090E022E0FC01208387E490E020910301CE
:10009000FC01208388E490E020910401FC0120838E
:1000A0000000DF91CF910895CF93DF93CDB7DEB7F6
:1000B00087E290E0FC01208187E290E02F63FC0161
:1000C00020838AE290E0FC0180818AE290E02FEFB9
:1000D000FC0120830000DF91CF910895CF93DF933F
:1000E000CDB7DEB788E690E0FC01208188E690E09D
:1000F0002160FC0120838BE390E0FC0120818BE3F5
:1001000090E02160FC01208384E290E0FC012081EA
:1001100084E290E02E7FFC01208385E290E0FC01E8
:10012000208185E290E02160FC0120838BE690E055
:10013000FC0120818BE690E02160FC01208384E2B9
:1001400090E0FC01208184E290E02D7FFC0120837F
:1001500085E290E0FC01208185E290E02260FC01D4
:1001600020838BE690E0FC0120818BE690E022600A
:10017000FC01208384E290E0FC01208184E290E095
:100180002B7FFC01208385E290E0FC01208185E249
:1001900090E02460FC0120838BE690E0FC0120814C
:1001A0008BE690E02460FC0120830000DF91CF917A
:1001B0000895CF93DF93CDB7DEB7F89457DF74DFA0
:1001C0008DDF789480910901882309F183E590E01F
:1001D000FC018081817F282F246083E590E0FC0171
:1001E000208383E590E0FC01208183E590E021609D
:1001F000FC0120837894889588E290E0FC013081AE
:1002000088E290E024E02327FC0120831EC083E5E0
:1002100090E0FC01208183E590E0217FFC012083B8
:1002200083E590E0FC01208183E590E02160FC0102
:1002300020837894889588E290E0FC01308188E200
:1002400090E021E02327FC01208383E590E0FC017E
:10025000208183E590E02E7FFC012083B3CFCF93F4
:10026000DF930F92CDB7DEB789838981882371F43C
:100270009091000181E08927882331F08091060167
:10028000882311F081E025C080E023C0898181307E
:1002900071F49091010181E08927882331F08091E8
:1002A0000701882311F081E014C080E012C0898129
:1002B000823071F49091020181E08927882331F026
:1002C00080910801882311F081E003C080E001C023
:1002D00080E00F90DF91CF9108951F920F920FB69B
:1002E0000F9211242F933F934F935F936F937F93BC
:1002F0008F939F93AF93BF93EF93FF93CF93DF932E
:10030000CDB7DEB783E290E0FC018081882F90E0DA
:100310008170992721E0892B09F420E020930601C0
:1003200083E290E0FC018081882F90E08270992721
:1003300021E0892B09F420E02093070183E290E07B
:10034000FC018081882F90E08470992721E0892B1F
:1003500009F420E02093080180E081DF882359F030
:100360008BE290E0FC0130818BE290E021E02327DA
:10037000FC01208319C081E072DF882359F08BE2F1
:1003800090E0FC0130818BE290E022E02327FC0129
:1003900020830AC082E063DF882331F09091090155
:1003A00081E08927809309018091060180930001F3
:1003B00080910701809301018091080180930201DF
:1003C0000000DF91CF91FF91EF91BF91AF919F918D
:1003D0008F917F916F915F914F913F912F910F90EE
:0C03E0000FBE0F901F901895F894FFCFEF
:0603EC00010101FEFE000C
:00000001FF
