:1000000019C02BC02AC029C028C027C026C025C0BF
:1000100024C023C022C021C020C01FC01EC01DC0DC
:100020001CC01BC01AC019C018C017C016C015C00C
:1000300014C013C011241FBECFEFD2E0DEBFCDBF6E
:1000400011E0A0E0B1E0E8E4F1E002C005900D921B
:10005000A230B107D9F754D075C0D2CFCF93DF9378
:10006000CDB7DEB784E490E0FC01208184E490E029
:100070002360FC01208384E490E0FC01208184E47F
:1000800090E02068FC01208384E490E0FC01208162
:1000900084E490E02062FC01208385E490E0FC0190
:1000A000208185E490E02360FC01208387E490E0D8
:1000B00020910001FC01208388E490E02091000160
:1000C000FC0120830000DF91CF910895CF93DF934F
:1000D000CDB7DEB787E290E0FC01208187E290E0B7
:1000E0002F63FC0120838AE290E0FC0180818AE298
:1000F00090E02FEFFC0120830000DF91CF91089565
:10010000CF93DF93CDB7DEB7E1DFA8DF01D0FFCF1C
:10011000CF93DF93CDB7DEB78BE290E0FC01208177
:100120008BE290E02F61FC01208388E290E0FC01EB
:10013000208188E290E02F63FC0120830000DF91A2
:08014000CF910895F894FFCF60
:02014800FA0AB1
:00000001FF
