:1000000019C020C01FC01EC01DC01CC01BC01AC00C
:1000100019C0D5C017C016C015C014C013C012C077
:1000200011C010C00FC00EC00DC00CC00BC00AC064
:1000300009C008C011241FBECFEFD2E0DEBFCDBF84
:100040007CD0E4C0DDCFCF93DF93CDB7DEB786EBB6
:1000500090E0FC01208186EB90E02062FC0120838F
:1000600081EB90E0FC01208181EB90E02560FC01B8
:10007000208380E790E0FC01208180E790E0216010
:10008000FC01208386EB90E0FC018081882F90E0CA
:100090008571992721E0892B09F420E0222309F0BA
:1000A000F1CF0000DF91CF910895CF93DF93CDB7CB
:1000B000DEB78AE290E0FC0120818AE290E02064D1
:1000C000FC0120838AE290E0FC0120818AE290E03A
:1000D0002062FC01208384E490E0FC01208184E420
:1000E00090E02360FC01208384E490E0FC01208107
:1000F00084E490E02068FC01208384E490E0FC012B
:10010000208184E490E02062FC01208385E490E07B
:10011000FC01208185E490E02360FC01208387E4DA
:1001200090E020EFFC01208388E490E020EFFC01C8
:1001300020830000DF91CF910895CF93DF93CDB757
:10014000DEB781DFB2DFF8948AE290E0FC01208123
:100150008AE290E02260FC0120838AE290E0FC01C8
:1001600020818AE290E02068FC0120838BE290E00D
:10017000FC0120818BE290E02260FC0120837894D6
:1001800083E590E0FC018081817F282F266083E554
:1001900090E0FC01208383E590E0FC01208183E571
:1001A00090E02160FC012083889583E590E0FC01CC
:1001B000208183E590E02E7FFC012083ECCF1F920D
:1001C0000F920FB60F9211242F933F938F939F930B
:1001D000EF93FF93CF93DF93CDB7DEB78BE290E041
:1001E000FC0130818BE290E022E02327FC01208398
:1001F0000000DF91CF91FF91EF919F918F913F91FF
:100200002F910F900FBE0F901F901895F894FFCF6D
:00000001FF
